:020000040000FA
:100000008316F0308600F8308800003087008312B5
:100010000A2008280614061AA620861A3820061B6D
:100020004720861B562006108614061A3320861A8F
:100030003D20061B4C20861B5B2086100615061AE9
:100040008120861A4220061B5120861B6020061143
:100050008615061A6520861A6C20061B7320861BDF
:100060007A20861108000030B5003030AC2008003E
:100070000130B5003130AC2008000230B50032301C
:10008000AC2008000330B5003330AC200800043049
:10009000B5003430AC2008000530B5003530AC2058
:1000A00008000630B5003630AC2008000730B50037
:1000B0003730AC2008000830B5003830AC200800DC
:1000C0000930B5003930AC2008003508B6000030E2
:1000D000B7002B30AC2008003508B6000130B7005F
:1000E0002D30AC2008003508B6000230B7002A30A9
:1000F000AC2008003508B6000330B7002F30AC2024
:1001000008003D30AC20B71C86288928371C8C2875
:100110009128371C96289E2836083507303EAC209B
:10012000080035083602303EAC20080000303607A3
:10013000B503031D9728303EAC2008003508360271
:10014000831C9F28303EAC20080008000130B620F8
:10015000B501B601B7010800081488100815B620CB
:100160003830B6200E30B620081408008700081179
:10017000BD200815BD20081008000D30B800FB3068
:10018000B900B90BC128B80BC12808000800080045
:00000001FF
